{
  "_format": "hh-sol-artifact-1",
  "contractName": "VotingSystem",
  "sourceName": "contracts/VotingSystem.sol",
  "abi": [
    {
      "inputs": [],
      "stateMutability": "nonpayable",
      "type": "constructor"
    },
    {
      "anonymous": false,
      "inputs": [
        {
          "indexed": true,
          "internalType": "uint256",
          "name": "electionId",
          "type": "uint256"
        },
        {
          "indexed": false,
          "internalType": "string",
          "name": "mongoId",
          "type": "string"
        },
        {
          "indexed": false,
          "internalType": "uint256",
          "name": "deadline",
          "type": "uint256"
        }
      ],
      "name": "ElectionCreated",
      "type": "event"
    },
    {
      "anonymous": false,
      "inputs": [
        {
          "indexed": true,
          "internalType": "uint256",
          "name": "electionId",
          "type": "uint256"
        },
        {
          "indexed": false,
          "internalType": "uint256",
          "name": "candidateIndex",
          "type": "uint256"
        }
      ],
      "name": "VoteCast",
      "type": "event"
    },
    {
      "inputs": [
        {
          "internalType": "string",
          "name": "mongoId",
          "type": "string"
        },
        {
          "internalType": "uint256",
          "name": "candidateCount",
          "type": "uint256"
        },
        {
          "internalType": "uint256",
          "name": "deadline",
          "type": "uint256"
        }
      ],
      "name": "createElection",
      "outputs": [
        {
          "internalType": "uint256",
          "name": "",
          "type": "uint256"
        }
      ],
      "stateMutability": "nonpayable",
      "type": "function"
    },
    {
      "inputs": [],
      "name": "electionCount",
      "outputs": [
        {
          "internalType": "uint256",
          "name": "",
          "type": "uint256"
        }
      ],
      "stateMutability": "view",
      "type": "function"
    },
    {
      "inputs": [
        {
          "internalType": "uint256",
          "name": "electionId",
          "type": "uint256"
        }
      ],
      "name": "getResults",
      "outputs": [
        {
          "internalType": "uint256[]",
          "name": "",
          "type": "uint256[]"
        }
      ],
      "stateMutability": "view",
      "type": "function"
    },
    {
      "inputs": [
        {
          "internalType": "uint256",
          "name": "electionId",
          "type": "uint256"
        }
      ],
      "name": "isActive",
      "outputs": [
        {
          "internalType": "bool",
          "name": "",
          "type": "bool"
        }
      ],
      "stateMutability": "view",
      "type": "function"
    },
    {
      "inputs": [],
      "name": "owner",
      "outputs": [
        {
          "internalType": "address",
          "name": "",
          "type": "address"
        }
      ],
      "stateMutability": "view",
      "type": "function"
    },
    {
      "inputs": [
        {
          "internalType": "uint256",
          "name": "electionId",
          "type": "uint256"
        },
        {
          "internalType": "uint256",
          "name": "candidateIndex",
          "type": "uint256"
        }
      ],
      "name": "vote",
      "outputs": [],
      "stateMutability": "nonpayable",
      "type": "function"
    }
  ],
  "bytecode": "0x608060405234801561001057600080fd5b50336000806101000a81548173ffffffffffffffffffffffffffffffffffffffff021916908373ffffffffffffffffffffffffffffffffffffffff160217905550611198806100606000396000f3fe608060405234801561001057600080fd5b50600436106100625760003560e01c806381a60c0d1461006757806382afd23b146100975780638da5cb5b146100c7578063997d2830146100e5578063b384abef14610103578063f49a7a171461011f575b600080fd5b610081600480360381019061007c91906106e9565b61014f565b60405161008e91906107d4565b60405180910390f35b6100b160048036038101906100ac91906106e9565b61026c565b6040516100be9190610811565b60405180910390f35b6100cf6102bb565b6040516100dc919061086d565b60405180910390f35b6100ed6102df565b6040516100fa9190610897565b60405180910390f35b61011d600480360381019061011891906108b2565b6102e5565b005b61013960048036038101906101349190610a38565b6104d0565b6040516101469190610897565b60405180910390f35b606060006002600084815260200190815260200160002090508060030160009054906101000a900460ff166101b9576040517f08c379a00000000000000000000000000000000000000000000000000000000081526004016101b090610b04565b60405180910390fd5b6000816001015467ffffffffffffffff8111156101d9576101d861090d565b5b6040519080825280602002602001820160405280156102075781602001602082028036833780820191505090505b50905060005b8260010154811015610261578260040160008281526020019081526020016000205482828151811061024257610241610b24565b5b602002602001018181525050808061025990610b82565b91505061020d565b508092505050919050565b60006002600083815260200190815260200160002060030160009054906101000a900460ff1680156102b4575060026000838152602001908152602001600020600201544211155b9050919050565b60008054906101000a900473ffffffffffffffffffffffffffffffffffffffff1681565b60015481565b60008054906101000a900473ffffffffffffffffffffffffffffffffffffffff1673ffffffffffffffffffffffffffffffffffffffff163373ffffffffffffffffffffffffffffffffffffffff1614610373576040517f08c379a000000000000000000000000000000000000000000000000000000000815260040161036a90610c16565b60405180910390fd5b60006002600084815260200190815260200160002090508060030160009054906101000a900460ff166103db576040517f08c379a00000000000000000000000000000000000000000000000000000000081526004016103d290610b04565b60405180910390fd5b8060020154421115610422576040517f08c379a000000000000000000000000000000000000000000000000000000000815260040161041990610c82565b60405180910390fd5b80600101548210610468576040517f08c379a000000000000000000000000000000000000000000000000000000000815260040161045f90610cee565b60405180910390fd5b806004016000838152602001908152602001600020600081548092919061048e90610b82565b9190505550827fc31875ef3ed5138b71a0c1da7e494bc4d2ba4f567084ea481ec9c45f3a93948b836040516104c39190610897565b60405180910390a2505050565b60008060009054906101000a900473ffffffffffffffffffffffffffffffffffffffff1673ffffffffffffffffffffffffffffffffffffffff163373ffffffffffffffffffffffffffffffffffffffff1614610561576040517f08c379a000000000000000000000000000000000000000000000000000000000815260040161055890610c16565b60405180910390fd5b4282116105a3576040517f08c379a000000000000000000000000000000000000000000000000000000000815260040161059a90610d5a565b60405180910390fd5b600183116105e6576040517f08c379a00000000000000000000000000000000000000000000000000000000081526004016105dd90610dc6565b60405180910390fd5b6000600160008154809291906105fb90610b82565b9190505590506000600260008381526020019081526020016000209050858160000190816106299190610ffd565b5084816001018190555083816002018190555060018160030160006101000a81548160ff021916908315150217905550817f43131521170c5b80ffe9526cfec987f5a24eb1f6c4bda47c41a5e4b8388afe5c878660405161068b929190611132565b60405180910390a281925050509392505050565b6000604051905090565b600080fd5b600080fd5b6000819050919050565b6106c6816106b3565b81146106d157600080fd5b50565b6000813590506106e3816106bd565b92915050565b6000602082840312156106ff576106fe6106a9565b5b600061070d848285016106d4565b91505092915050565b600081519050919050565b600082825260208201905092915050565b6000819050602082019050919050565b61074b816106b3565b82525050565b600061075d8383610742565b60208301905092915050565b6000602082019050919050565b600061078182610716565b61078b8185610721565b935061079683610732565b8060005b838110156107c75781516107ae8882610751565b97506107b983610769565b92505060018101905061079a565b5085935050505092915050565b600060208201905081810360008301526107ee8184610776565b905092915050565b60008115159050919050565b61080b816107f6565b82525050565b60006020820190506108266000830184610802565b92915050565b600073ffffffffffffffffffffffffffffffffffffffff82169050919050565b60006108578261082c565b9050919050565b6108678161084c565b82525050565b6000602082019050610882600083018461085e565b92915050565b610891816106b3565b82525050565b60006020820190506108ac6000830184610888565b92915050565b600080604083850312156108c9576108c86106a9565b5b60006108d7858286016106d4565b92505060206108e8858286016106d4565b9150509250929050565b600080fd5b600080fd5b6000601f19601f8301169050919050565b7f4e487b7100000000000000000000000000000000000000000000000000000000600052604160045260246000fd5b610945826108fc565b810181811067ffffffffffffffff821117156109645761096361090d565b5b80604052505050565b600061097761069f565b9050610983828261093c565b919050565b600067ffffffffffffffff8211156109a3576109a261090d565b5b6109ac826108fc565b9050602081019050919050565b82818337600083830152505050565b60006109db6109d684610988565b61096d565b9050828152602081018484840111156109f7576109f66108f7565b5b610a028482856109b9565b509392505050565b600082601f830112610a1f57610a1e6108f2565b5b8135610a2f8482602086016109c8565b91505092915050565b600080600060608486031215610a5157610a506106a9565b5b600084013567ffffffffffffffff811115610a6f57610a6e6106ae565b5b610a7b86828701610a0a565b9350506020610a8c868287016106d4565b9250506040610a9d868287016106d4565b9150509250925092565b600082825260208201905092915050565b7f456c656374696f6e20646f6573206e6f74206578697374000000000000000000600082015250565b6000610aee601783610aa7565b9150610af982610ab8565b602082019050919050565b60006020820190508181036000830152610b1d81610ae1565b9050919050565b7f4e487b7100000000000000000000000000000000000000000000000000000000600052603260045260246000fd5b7f4e487b7100000000000000000000000000000000000000000000000000000000600052601160045260246000fd5b6000610b8d826106b3565b91507fffffffffffffffffffffffffffffffffffffffffffffffffffffffffffffffff8203610bbf57610bbe610b53565b5b600182019050919050565b7f4e6f7420617574686f72697a6564000000000000000000000000000000000000600082015250565b6000610c00600e83610aa7565b9150610c0b82610bca565b602082019050919050565b60006020820190508181036000830152610c2f81610bf3565b9050919050565b7f566f74696e6720706572696f642068617320656e646564000000000000000000600082015250565b6000610c6c601783610aa7565b9150610c7782610c36565b602082019050919050565b60006020820190508181036000830152610c9b81610c5f565b9050919050565b7f496e76616c69642063616e646964617465000000000000000000000000000000600082015250565b6000610cd8601183610aa7565b9150610ce382610ca2565b602082019050919050565b60006020820190508181036000830152610d0781610ccb565b9050919050565b7f446561646c696e65206d75737420626520696e20746865206675747572650000600082015250565b6000610d44601e83610aa7565b9150610d4f82610d0e565b602082019050919050565b60006020820190508181036000830152610d7381610d37565b9050919050565b7f4e656564206174206c6561737420322063616e64696461746573000000000000600082015250565b6000610db0601a83610aa7565b9150610dbb82610d7a565b602082019050919050565b60006020820190508181036000830152610ddf81610da3565b9050919050565b600081519050919050565b7f4e487b7100000000000000000000000000000000000000000000000000000000600052602260045260246000fd5b60006002820490506001821680610e3857607f821691505b602082108103610e4b57610e4a610df1565b5b50919050565b60008190508160005260206000209050919050565b60006020601f8301049050919050565b600082821b905092915050565b600060088302610eb37fffffffffffffffffffffffffffffffffffffffffffffffffffffffffffffffff82610e76565b610ebd8683610e76565b95508019841693508086168417925050509392505050565b6000819050919050565b6000610efa610ef5610ef0846106b3565b610ed5565b6106b3565b9050919050565b6000819050919050565b610f1483610edf565b610f28610f2082610f01565b848454610e83565b825550505050565b600090565b610f3d610f30565b610f48818484610f0b565b505050565b5b81811015610f6c57610f61600082610f35565b600181019050610f4e565b5050565b601f821115610fb157610f8281610e51565b610f8b84610e66565b81016020851015610f9a578190505b610fae610fa685610e66565b830182610f4d565b50505b505050565b600082821c905092915050565b6000610fd460001984600802610fb6565b1980831691505092915050565b6000610fed8383610fc3565b9150826002028217905092915050565b61100682610de6565b67ffffffffffffffff81111561101f5761101e61090d565b5b6110298254610e20565b611034828285610f70565b600060209050601f8311600181146110675760008415611055578287015190505b61105f8582610fe1565b8655506110c7565b601f19841661107586610e51565b60005b8281101561109d57848901518255600182019150602085019450602081019050611078565b868310156110ba57848901516110b6601f891682610fc3565b8355505b6001600288020188555050505b505050505050565b60005b838110156110ed5780820151818401526020810190506110d2565b60008484015250505050565b600061110482610de6565b61110e8185610aa7565b935061111e8185602086016110cf565b611127816108fc565b840191505092915050565b6000604082019050818103600083015261114c81856110f9565b905061115b6020830184610888565b939250505056fea264697066735822122089bd7363cc9a4a3afecc416886bb658d364098043cb8913f416afe223d95abb464736f6c63430008140033",
  "linkReferences": {},
  "deployedLinkReferences": {}
}